{"contracts/test.sol":{"test":{"abi":[{"inputs":[],"name":"a","outputs":[{"internalType":"uint256","name":"","type":"uint256"}],"stateMutability":"view","type":"function"},{"inputs":[],"name":"bar","outputs":[],"stateMutability":"nonpayable","type":"function"},{"inputs":[],"name":"foo","outputs":[],"stateMutability":"nonpayable","type":"function"}],"evm":{"bytecode":{"linkReferences":{},"object":"6080604052600a60005534801561001557600080fd5b5060eb806100246000396000f3fe6080604052348015600f57600080fd5b5060043610603c5760003560e01c80630dbe671f146041578063c298557814605b578063febb0f7e146063575b600080fd5b6047606b565b60405160529190609c565b60405180910390f35b60616071565b005b6069607b565b005b60005481565b6005600081905550565b600f600081905550565b6000819050919050565b6096816085565b82525050565b600060208201905060af6000830184608f565b9291505056fea2646970667358221220602ce005b75aaac0622adf5d8bb5d15808722db167fbe0c15adf5b14dd5f475064736f6c63430008120033","opcodes":"PUSH1 0x80 PUSH1 0x40 MSTORE PUSH1 0xA PUSH1 0x0 SSTORE CALLVALUE DUP1 ISZERO PUSH2 0x15 JUMPI PUSH1 0x0 DUP1 REVERT JUMPDEST POP PUSH1 0xEB DUP1 PUSH2 0x24 PUSH1 0x0 CODECOPY PUSH1 0x0 RETURN INVALID PUSH1 0x80 PUSH1 0x40 MSTORE CALLVALUE DUP1 ISZERO PUSH1 0xF JUMPI PUSH1 0x0 DUP1 REVERT JUMPDEST POP PUSH1 0x4 CALLDATASIZE LT PUSH1 0x3C JUMPI PUSH1 0x0 CALLDATALOAD PUSH1 0xE0 SHR DUP1 PUSH4 0xDBE671F EQ PUSH1 0x41 JUMPI DUP1 PUSH4 0xC2985578 EQ PUSH1 0x5B JUMPI DUP1 PUSH4 0xFEBB0F7E EQ PUSH1 0x63 JUMPI JUMPDEST PUSH1 0x0 DUP1 REVERT JUMPDEST PUSH1 0x47 PUSH1 0x6B JUMP JUMPDEST PUSH1 0x40 MLOAD PUSH1 0x52 SWAP2 SWAP1 PUSH1 0x9C JUMP JUMPDEST PUSH1 0x40 MLOAD DUP1 SWAP2 SUB SWAP1 RETURN JUMPDEST PUSH1 0x61 PUSH1 0x71 JUMP JUMPDEST STOP JUMPDEST PUSH1 0x69 PUSH1 0x7B JUMP JUMPDEST STOP JUMPDEST PUSH1 0x0 SLOAD DUP2 JUMP JUMPDEST PUSH1 0x5 PUSH1 0x0 DUP2 SWAP1 SSTORE POP JUMP JUMPDEST PUSH1 0xF PUSH1 0x0 DUP2 SWAP1 SSTORE POP JUMP JUMPDEST PUSH1 0x0 DUP2 SWAP1 POP SWAP2 SWAP1 POP JUMP JUMPDEST PUSH1 0x96 DUP2 PUSH1 0x85 JUMP JUMPDEST DUP3 MSTORE POP POP JUMP JUMPDEST PUSH1 0x0 PUSH1 0x20 DUP3 ADD SWAP1 POP PUSH1 0xAF PUSH1 0x0 DUP4 ADD DUP5 PUSH1 0x8F JUMP JUMPDEST SWAP3 SWAP2 POP POP JUMP INVALID LOG2 PUSH5 0x6970667358 0x22 SLT KECCAK256 PUSH1 0x2C 0xE0 SDIV 0xB7 GAS 0xAA 0xC0 PUSH3 0x2ADF5D DUP12 0xB5 0xD1 PC ADDMOD PUSH19 0x2DB167FBE0C15ADF5B14DD5F475064736F6C63 NUMBER STOP ADDMOD SLT STOP CALLER "},"methodIdentifiers":{"a()":"0dbe671f","bar()":"febb0f7e","foo()":"c2985578"}}}}}