{
  "_format": "hh-sol-artifact-1",
  "contractName": "test",
  "sourceName": "contracts/test.sol",
  "abi": [
    {
      "inputs": [],
      "name": "a",
      "outputs": [
        {
          "internalType": "uint256",
          "name": "",
          "type": "uint256"
        }
      ],
      "stateMutability": "view",
      "type": "function"
    },
    {
      "inputs": [],
      "name": "bar",
      "outputs": [],
      "stateMutability": "nonpayable",
      "type": "function"
    },
    {
      "inputs": [],
      "name": "foo",
      "outputs": [],
      "stateMutability": "nonpayable",
      "type": "function"
    }
  ],
  "bytecode": "0x6080604052600a60005534801561001557600080fd5b5060eb806100246000396000f3fe6080604052348015600f57600080fd5b5060043610603c5760003560e01c80630dbe671f146041578063c298557814605b578063febb0f7e146063575b600080fd5b6047606b565b60405160529190609c565b60405180910390f35b60616071565b005b6069607b565b005b60005481565b6005600081905550565b600f600081905550565b6000819050919050565b6096816085565b82525050565b600060208201905060af6000830184608f565b9291505056fea2646970667358221220602ce005b75aaac0622adf5d8bb5d15808722db167fbe0c15adf5b14dd5f475064736f6c63430008120033",
  "linkReferences": {},
  "deployedLinkReferences": {}
}